:020000040000fa
:080000000002040000000000f2
:020000040000fa
:100400000f852000007f240000018800000000000c
:100410000c000700803820000100200011000700b8
:10042000000020000000e000020032000000020096
:100430000000000078030200000000000040da0025
:100440000000fe004440a900000020000000e00081
:100450000300320000002000a00188004440a800f2
:100460000000060091018800800078000000eb0089
:1004700015003700e280400032a0b4009101ba00bc
:10048000e280400032a0b4009102ba00e280400055
:1004900032a0b4000002eb00472bde00f507b200eb
:1004a000602ce10004003a000059eb008301e900f0
:1004b000fdff3e00040037006128e100010032002a
:1004c0000082eb00040007001101ba000200e00006
:1004d000e8ff3a00000006003159ba008301e90044
:1004e0000c0032002159ba008301e90008003200f3
:1004f0000400e00003003a00e280400032a0b400b3
:10050000f5ff370011d9ba008301e900faff3a007c
:100510008100e800e180400032a0b4000000060045
:020000040000fa
:0200000401f009
:04000c00f8ff0000f9
:020000040000fa
:0200000401f009
:040010007fff00006e
:020000040000fa
:100008008a0300008a0300008a0300008a030000b4
:100018008a0300008a0300008a0300008a030000a4
:100028008a0300008a0300008a0300008a03000094
:100038008a0300008a0300008a0300008a03000084
:100048008a0300008a0300008a0300008a03000074
:100058008a030000460300008a0300008a030000a8
:100068008a0300008a0300008a0300008a03000054
:100078008a0300008a0300008a0300008a03000044
:100088008a0300008a0300008a0300008a03000034
:100098008a0300008a0300008a0300008a03000024
:1000a8008a0300008a0300008a0300008a03000014
:1000b8008a0300008a0300008a0300008a03000004
:1000c8008a0300008a0300008a0300008a030000f4
:1000d8008a0300008a0300008a0300008a030000e4
:1000e8008a0300008a0300008a0300008a030000d4
:1000f8008a0300008a0300008a0300008a030000c4
:100108008a0300008a0300008a0300008a030000b3
:100118008a0300008a0300008a0300008a030000a3
:100128008a0300008a0300008a0300008a03000093
:100138008a0300008a0300008a0300008a03000083
:100148008a0300008a0300008a0300008a03000073
:100158008a0300008a0300008a0300008a03000063
:100168008a0300008a0300008a0300008a03000053
:100178008a0300008a0300008a0300008a03000043
:100188008a0300008a0300008a0300008a03000033
:100198008a0300008a0300008a0300008a03000023
:1001a8008a0300008a0300008a0300008a03000013
:1001b8008a0300008a0300008a0300008a03000003
:1001c8008a0300008a0300008a0300008a030000f3
:1001d8008a0300008a0300008a0300008a030000e3
:1001e8008a0300008a0300008a0300008a030000d3
:0801f8008a0300008a030000e5
:020000040000fa
:100208008a0300008a0300008a0300008a030000b2
:100218008a0300008a0300008a0300008a030000a2
:100228008a0300008a0300008a0300008a03000092
:100238008a0300008a0300008a0300008a03000082
:100248008a0300008a0300008a0300008a03000072
:100258008a030000460300008a0300008a030000a6
:100268008a0300008a0300008a0300008a03000052
:100278008a0300008a0300008a0300008a03000042
:100288008a0300008a0300008a0300008a03000032
:100298008a0300008a0300008a0300008a03000022
:1002a8008a0300008a0300008a0300008a03000012
:1002b8008a0300008a0300008a0300008a03000002
:1002c8008a0300008a0300008a0300008a030000f2
:1002d8008a0300008a0300008a0300008a030000e2
:1002e8008a0300008a0300008a0300008a030000d2
:1002f8008a0300008a0300008a0300008a030000c2
:100308008a0300008a0300008a0300008a030000b1
:100318008a0300008a0300008a0300008a030000a1
:100328008a0300008a0300008a0300008a03000091
:100338008a0300008a0300008a0300008a03000081
:100348008a0300008a0300008a0300008a03000071
:100358008a0300008a0300008a0300008a03000061
:100368008a0300008a0300008a0300008a03000051
:100378008a0300008a0300008a0300008a03000041
:100388008a0300008a0300008a0300008a03000031
:100398008a0300008a0300008a0300008a03000021
:1003a8008a0300008a0300008a0300008a03000011
:1003b8008a0300008a0300008a0300008a03000001
:1003c8008a0300008a0300008a0300008a030000f1
:1003d8008a0300008a0300008a0300008a030000e1
:1003e8008a0300008a0300008a0300008a030000d1
:0803f8008a0300008a030000e3
:020000040000fa
:100520000000fa00313a800000e02f0000806000f7
:100530009102200001007000303a880041742000d0
:100540009140780000ceb30000c0600044e7b700df
:1005500044c7bf00f043b20044e7b70012002000d8
:1005600081072000a0092000337420008149780011
:100570008049780082497800120020006104200040
:10058000700520002374200081497800804978009c
:100590008249780043c7bf000047b200f04f5000c7
:1005a000fcff3a0042c7bf000042b2000004e00076
:1005b000fcff32000080fa00000006000000fa0094
:1005c000400d2300200e880010272000b00e880068
:1005d000011c20009140780030cfb30000c06000c3
:1005e0000034a000c0e1b700c901a800c8a1a8005c
:1005f0000000eb00100e8800c1e1a8000080fa00a6
:10060000000006000000fa002143a80020c3bf003c
:100610007f40600001c4b3000140700020e3b700d8
:100620002043a8002343a80025e3a900f0c3b3009a
:1006300024e3b7003083a8000080eb006019880035
:100640002c83a90085a0a90095a0a80021e3a800fb
:100650000080fa00000006000000fa0021112000ce
:100660009140780000c3b30000c0700012e1b700f1
:100670000000eb0050088800c0c823007008880004
:1006800013e1a8000080fa0000000600809fbe0071
:10069000821f78000000fa00cbc2bf000080fb0080
:1006a0004600de00614060000041780002407800b2
:1006b0000080ea008180ea006140600061406000e3
:1006c0004601dd00b12c200091407800f0cbb30052
:1006d00000c0600002407000cbe2b70085a0a90016
:1006e0000080fa004f0178004f00be000040060075
:1006f0000000fa008aff0700c2ff0700d6ff0700cc
:10070000aeff0700c982a900c9c2a900ffff3700d8
:020000040000fa
:0407100000000000e5
:020000040000fa
:040714000000fe00e3
:00000001FF
